:0400000080313328F0
:1000060008007E14803140017F08F3000B1F13287F
:100016004E0118180E1C13289E31CC2680312E282E
:100026000B1F1C284E011B19111D1C2811111B1119
:100036002E280B1F26284E011A18101C26289E3122
:10004600BA2680312E280B1F2E284E011A19101D94
:100056002E289231B82273084001FF007E10090055
:100066008031352841018731FF278031EF00F701C4
:10007600F801F901E2308400003085000B309D3133
:10008600C9258031203084000130850008309D313B
:10009600C9257E10400188312D284101CB00A230B0
:1000A600A5002508B6002108A6002008A500A00A7C
:1000B6000319A10A25088400260885000008A70060
:1000C6002708CA004A0803198B2F25304A06031948
:1000D60078284A08A5004B08860087012508810074
:1000E6000130A5002508CB075628C101C201C80169
:1000F600C901862848148228C81482284815013068
:10010600A0070030A13D20088400210885000008D2
:10011600203A03197D280B3A03197F281B3A031945
:1001260081289528C81C9B28FE30C805FF30C905C4
:10013600200884002108850000089E313E26803173
:10014600031CDD284101C101C2010A304001AD0096
:100156000030AE00410142084001B00041014108B3
:100166004001AF0091315F21803140012E084101ED
:10017600C20040012D084101C10020088400210869
:1001860085000008D03EA500FF3003180030A60009
:100196002508C1072608C23D0130A0070030A13D51
:1001A600200884002108850000089E313E26803103
:1001B6000318A828410120088400210885001200A0
:1001C6002E3A031D232949170130A0070030A13D0F
:1001D600C601C701200884002108850000089E3159
:1001E6003E268031031C2A2941012008840021086B
:1001F60085000008A500A60147084001AE004101A0
:1002060046084001AD000A30AF000030B000913121
:100216005F2180314101250840012D074101A700DA
:10022600260840012E3D4101A8002708D03EC60001
:10023600FF30283DC7000130A0070030A13DED2862
:100246004101C601C70149162A2949154529410117
:100256002108A6002008A500A00A0319A10A25085E
:100266008400260885000008CA00003A03198B2F6F
:10027600643A03194529023A031928290F3A031942
:100286004529562800304805A50007304905A6002F
:10029600250826040319FE2D491E55290630C600D9
:1002A6000030C700360886008701403FC300413F43
:1002B600C400423FC5000330A5002508B607430821
:1002C6004001A000410144084001A1004101450848
:1002D6004001A2000030A3000030A4000030A500B9
:1002E6009231EB22803103188D2941014308F40035
:1002F6004408F5004508F6009D31CF258031740885
:100306004101C3007508C4007608C5000330C8045F
:100316000030C9044101BF01C0014508440443043B
:1003260003195B2AC33086008701403FA500413F81
:10033600A600423FA700433FA8000F30A836A70CEF
:10034600A60CA50C890BA129FF302505A9000030B4
:100356002605AA002908823EBF00FF302A3DC000BC
:10036600FF30BF07FF30C03D03304001AD00003015
:10037600AE00410140084001B00041013F08400184
:10038600AF0091315F21803140012E084101C0004C
:1003960040012D084101BF000A304001A400003091
:1003A600A500410140084001A70041013F08400166
:1003B600A600943140248031400125084101C00047
:1003C600400124084101BF00C01FED29FF30BF07CF
:1003D600FF30C03D3F03FF3A8D31BA2580314001E1
:1003E60043084101B700400144084101B8004001FB
:1003F60045084101B90043084001B30041014408E2
:100406004001B400410145084001B50041013708EB
:100416004001B600410138084001B70041013908E2
:100426004001B8008831D7208031400133084101AE
:10043600B700400134084101B800400135084101C8
:10044600B90037084001A000410138084001A10069
:10045600410139084001A2000030A3008030A40009
:100466003F30A5009231EB22803103183F2AFF303E
:100476004101BF07FF305A2A410137084001A00059
:10048600410138084001A100410139084001A2009C
:100496000030A3002030A4004130A5009231EB22A9
:1004A6008031031C5B2A01304101BF070030C03D8B
:1004B60041014708803AA50080302502031D652AC0
:1004C6000D30460203188E2A410146088C31542409
:1004D600803140014308D1004408D2004508D300CA
:1004E600410143084001D400410144084001D500C0
:1004F600410145084001D6008A3141228031400140
:1005060051084101C300400152084101C4004001A5
:1005160053084101C50041014008803AA5008030DA
:100526002502031D982A0A303F020318C12A4101F9
:100536004508440443040319202B43084001DE0008
:10054600410144084001DF00410145084001E00047
:1005560095319D2580314001610860045F045E0489
:10056600031D202B41014008803AA500803025025A
:10057600031DBF2A02303F02031C202B410137080E
:100586004001A000410138084001A100410139089D
:100596004001A2007030A3008930A4004030A500BD
:1005A6009231EB2280310318DA2AF730DB2AF83051
:1005B6004101BF07FF30C03D3F088D31BA2580316C
:1005C600400143084101B700400144084101B80019
:1005D600400145084101B90043084001A00041011E
:1005E60044084001A100410145084001A200410123
:1005F60037084001A300410138084001A400410129
:1006060039084001A50089318B218031400123083A
:100616004101BE00400122084101BD004001210800
:100626004101BC00400120084101BB000030C3006D
:100636000030C4000030C500752B4101430840015D
:10064600DE00410144084001DF0041014508400148
:10065600E00095319D258031400161084101BE00D1
:10066600400160084101BD0040015F084101BC0036
:1006760040015E084101BB003E084001A80041015F
:100686003D084001A70041013C084001A600410188
:100696003B084001A5008831032080314001250830
:1006A600DE002608DF002708E0004101430840017C
:1006B600E100410144084001E200410145084001D2
:1006C600E3009F31E227803140015E084101C3000B
:1006D60040015F084101C400400160084101C500B6
:1006E600BF01C001CA01CA0A0A304A060319A82B6B
:1006F6004A08A500A601A535A60DA535A60D80308C
:10070600250784009030263D8500003FA700013F65
:10071600A800023FA900033FAA002A083E02031DC3
:100726009E2B29083D02031D9E2B28083C02031D13
:100736009E2B27083B02031CA82B0130A500250889
:10074600CA070A304A06031D7B2B4A08A500A601E4
:10075600A51BA60346082507A7004708263DA800AF
:100766003F082707A9004008283DAA002908C1021A
:100776002A08C23B460847040319C52BFF30C107A8
:10078600FF30C23D03304805A50000304905A600EC
:10079600250826040319D32BFF30C107FF30C23DBD
:1007A600481D1A2CC81CE12B4818DB2B2B30DC2BE0
:1007B6002D30AE000030AF002E08E42B481CEE2B87
:1007C6002030A5004B0886008701250881000130EE
:1007D600A5002508CB074208803AA50080302502EF
:1007E600031DF72B01304102031C402C3030410120
:1007F600A5004B0886008701250881000130A50069
:100806002508CB07FF30C107FF30C23DEE2B203055
:100816004101A5004B0886008701250881000130AB
:10082600A5002508CB07FF30C107FF30C23D4101B7
:100836004208803AA50080302502031D242C013091
:10084600410203180A2C4101C81C332C48182D2CD0
:100856002B302E2C2D30B0000030B1003008362C55
:10086600481C402C2030A5004B088600870125082F
:1008760081000130A5002508CB07FF304101A50006
:100886002508CA074A0A0319C02C4A08A500A6016A
:10089600A535A60DA535A60D803025078400903018
:1008A600263D8500003F4001A000013FA100023F18
:1008B600A200033FA30041013E084001A7004101F9
:1008C6003D084001A60041013C084001A500410148
:1008D6003B084001A4009431922480314001230852
:1008E6004101BA00400122084101B9004001210836
:1008F6004101B800400120084101B7000030400125
:10090600B0000030AF000030AE000A30AD0041014B
:100916003A084001B400410139084001B3004101E1
:1009260038084001B200410137084001B100933157
:1009360069238031400130084101BA0040012F0887
:100946004101B90040012E084101B80040012D08BF
:100956004101B7003708303E362C30304101A50042
:100966004B0886008701250881000130A50025086F
:10097600CB07FF30BF07FF30C03D4008803AA500D7
:1009860080302502031DC92C01303F020318B02C0C
:1009960041014708803AA50080302502031DD52C69
:1009A60009304602031CDA2C08304101DC2C4101D7
:1009B6004608A5002508CA004A08A500A601A51BE9
:1009C600A6032508C6022608C73B4A080319F62CC3
:1009D6002E30A5004B0886008701250881000130CE
:1009E600A5002508CB074A088D31BA25803140017C
:1009F60043084101AB00400144084101AC004001FD
:100A060045084101AD002B084001B60041012C0804
:100A16004001B70041012D084001B80041014308DB
:100A26004001B300410144084001B40041014508BA
:100A36004001B5008831D720803140013308DE00FF
:100A46003408DF003508E00095319D2580314001EE
:100A560061084101BE00400160084101BD0040013E
:100A66005F084101BC0040015E084101BB00FF3048
:100A7600A5002508CA074A0A0319F92D4A08A50040
:100A8600A601A535A60DA535A60D8030250784003F
:100A96009030263D8500003F4001A000013FA100A7
:100AA600023FA200033FA30041013E084001A70008
:100AB60041013D084001A60041013C084001A50056
:100AC60041013B084001A400943192248031400149
:100AD60023084101BA00400122084101B900400142
:100AE60021084101B800400120084101B70000304B
:100AF6004001B0000030AF000030AE000A30AD005B
:100B060041013A084001B400410139084001B300EF
:100B1600410138084001B200410137084001B100E7
:100B2600933169238031400130084101BA00400108
:100B36002F084101B90040012E084101B8004001CB
:100B46002D084101B7003708303EA5004B08860046
:100B56008701250881000130A5002508CB074A0832
:100B6600A500A601A535A60DA535A60D803025073D
:100B760084009030263D8500003F4001AD00013FD6
:100B8600AE00023FAF00033FB00041013E08400106
:100B9600B40041013D084001B30041013C08400159
:100BA600B20041013B084001B10093316923803115
:100BB600400130084101BE0040012F084101BD003F
:100BC60040012E084101BC0040012D08382D30306F
:100BD600A5004B0886008701250881000130A50085
:100BE6002508CB07FF30C607FF30C73D4608470438
:100BF60003195628EA2D360886008701403FA500CE
:100C0600413FA6002508BB002608BC00890D893B8C
:100C16008909BD00BE000230A5002508B607BE1F23
:100C2600232E0330C8040030C904BB09BC09BD0922
:100C3600BE09BB0A0319BC0A0319BD0A0319BE0A79
:100C460046084704031D312E3E083D043C043B0480
:100C5600031D312E0130C6070030C73DCA01CA0A3E
:100C66000A304A060319642E4A08A500A601A535CE
:100C7600A60DA535A60D8030250784009030263DAB
:100C86008500003FA700013FA800023FA900033FDF
:100C9600AA002A083E02031D5A2E29083D02031DFA
:100CA6005A2E28083C02031D5A2E27083B02031C15
:100CB600642E0130A5002508CA070A304A06031D1E
:100CC600372E4A08A500A601A51BA6032608803ACA
:100CD600A7004708803A2702031D732E46082502FF
:100CE60003187B2E41014608A5002508CA00932E4D
:100CF60041014A08A500A601A51BA6034708803A9C
:100D0600A7002608803A2702031D8B2E25084602D7
:100D16000318932E41014A08C600C701C61BC70324
:100D26004101410842040319A62E03304805A500D7
:100D360000304905A600250826040319A62EFF3013
:100D4600C107FF30C23D491FBD2E4708803AA500A6
:100D56004208803A2502031DB22E410846020318B6
:100D6600BA2E41014608C1024708C23BBD2E4101C9
:100D7600C101C2014A08A500A601A51BA6032608B3
:100D8600803AA7004208803A2702031DCC2E41086C
:100D960025020318D92E41014A08A500A601A51B64
:100DA600A6032508C1022608C23BDC2E4101C1016B
:100DB600C201481D0B2FC81CEA2E4818E42E2B3002
:100DC600E52E2D30B2000030B3003208ED2E481C5F
:100DD600F72E2030A5004B088600870125088100E4
:100DE6000130A5002508CB074108420403193B2F13
:100DF6003030A5004B0886008701250881000130A8
:100E0600A5002508CB07FF30C107FF30C23DF72EEE
:100E1600410842040319222F2030A5004B08860002
:100E26008701250881000130A5002508CB07FF3082
:100E3600C107FF30C23D41084204031D0F2FC81CE5
:100E46002E2F4818282F2B30292F2D30B400003094
:100E5600B5003408312F481C3B2F2030A5004B0825
:100E660086008701250881000130A5002508CB07EB
:100E7600FF30C607FF30C73D460A0319470A031964
:100E8600562800304001B0000030AF000030AE0000
:100E96000A30AD00410147088500460884008435C4
:100EA600850D8435850D803084079030853D003F63
:100EB6004001A000013FA100023FA200033FA300A2
:100EC60041013E084001A70041013D084001A6003E
:100ED60041013C084001A50041013B084001A40036
:100EE60094319224803140012308B4002208B300D3
:100EF6002108B2002008B1009331692380314001F6
:100F06002D08303E4101A5002508CA004A08312FA8
:100F16004B0886008701810108009331272387311A
:100F26004001ED1BA22F93312723873140016D0825
:100F36004101E10040016C084101E000B42F93310A
:100F46002723873140016C094101CC0040016D091E
:100F56004101CD00CC0A0319CD0A4C08E0004D082A
:100F6600E1000530A0009130A10000304001AB0047
:100F76007A30AC004430AD00410161084001A60062
:100F8600410160084001A5009131BA218731400135
:100F96002508AE002608AF002708B000973157276E
:100FA600873140012B084101A20040012C08410174
:100FB600A30040012D084101A400CF30803150200C
:100FC6008731CF304001A5000030A600A701963139
:100FD600B526873104304101CE002C30CD00AD302E
:100FE600CC00CC0BF42FCD0BF42FCE0BF42F00320C
:0A0FF60008008B170B1708000134E8
:101006008E304001A9002908AA00FF3028050319DF
:1010160018280130A836A70CA60CA50C890B0D289C
:101026000130A9002908AA0708282508A0002608D3
:10103600A1002708A2002A08A9002908A300A401E4
:101046009531382540012008A5002108A600220870
:10105600A70008004201AB017730F4001F30F5000D
:101066009D31BD2588313030F4001F30F5009D31AB
:10107600B72588319F314627883101309E311626A3
:10108600883140019A141A1591124730A500913003
:10109600A600A7019631B526883110304201AA0074
:1010A600DB30A9007230A800A80B5728A90B5728D7
:1010B600AA0B57280000B1289431E5248831AC28C2
:1010C60041016F080319712891319A218831063040
:1010D600F4001F30F5009D31C325883141016B08AE
:1010E6000319AC289331F22388314101EB01913188
:1010F6009A218831AC28923154228831AC28873124
:1011060090278831AC2841016F08031994283030A4
:10111600F4001F30F5009D31C32588319231242219
:10112600883141016B080319AC2896312426883191
:101136004101EB01923124228831AC289E310D26E3
:101146008831AC289E3104268831AC289D31FB2598
:1011560088314101EF0140018D1FBD2842012B0856
:101166008400083004020318AC2898310435003E88
:101176008200AC2809304201A9001C30A800A80B47
:10118600C228A90BC228000040018D1FC7284201B2
:101196002B08013E0739A8002808AB000130A8003B
:1011A60028084101EF00B12840013308B90034088E
:1011B600BA003508BB0003103A0D3B0DBC003C08D5
:1011C600BD003D08031DEE280030B3000030B4001A
:1011D6000030B50008003608B9003708BA003808EC
:1011E600BB0003103A0D3B0DBC003C08C200420890
:1011F600031D04290030B3000030B4000030B500F0
:10120600080042087B3EB9003908BD073308B9001B
:101216003408BA003508BB001030BB36BA0CB90C1E
:10122600890B10293908BC003C08C2003608B900F1
:101236003708BA003808BB001030BB36BA0CB90CF8
:10124600890B20293908BC003C08C2068030B90049
:101256003908C205B417B717FF30B605FF30B70512
:101266000030B8050030BE000030BF000030C000BE
:101276000730B9003908C100331C47293608BE07B4
:101286003708BF3D3808C03D0130B536B40CB30C45
:10129600890B48290130B635B70DB80D890B4E2993
:1012A6000130C102031D3F290930B9003908C100C8
:1012B600331C63293608BE073708BF3D3808C03DD2
:1012C6000130B536B40CB30C890B64290130C03635
:1012D600BF0CBE0C890B6A290130C102031D5B29B4
:1012E6003E08A0003F08A1004008A2003D08B90042
:1012F6003908A3004208BA003A08A40095313825F7
:1013060040012008B3002108B4002208B5000800F7
:1013160040012008A6002108A7002208A800031003
:10132600270D280DA9002908AF002F08031DA429A1
:101336000030A3000030A2000030A1000030A00061
:1013460008002308A6002408A7002508A800031003
:10135600270D280DA9002908AE002E08031DBC295B
:101366000030A3000030A2000030A1000030A00031
:101376000800A117FF30A005FF30A1050030A20527
:10138600A417FF30A305FF30A4050030A5050030E3
:10139600AD000030AC000030AB000030AA007F305A
:1013A600AF0298302E07A6002608AF021830A60016
:1013B6002608AE000130AA35AB0DAC0DAD0D890B7C
:1013C600DE2925082202031DEE2924082102031D19
:1013D600EE2923082002031CF7292308A00224086B
:1013E600A13B2508A23B2A140130A035A10DA20D70
:1013F600890BF8290130AE02031DDD29AF1F1F2A14
:101406002F08803A973E0318112A0030A3000030B7
:10141600A2000030A1000030A00008000130AD3667
:10142600AC0CAB0CAA0C890B122A0130A6002608BC
:10143600AF070319382A112A18302F02031C352A40
:101446000030A3000030A2000030A1000030A00050
:1014560008000130AA35AB0DAC0DAD0D890B2D2A58
:101466000130AF022F08031D2C2A2D08A3002C08DB
:10147600A2002B08A1002A08A0000800400151087C
:10148600D7005208D8005308D9000310580D590D3B
:10149600DA005A08DD005408D7005508D800560867
:1014A600D9000310580D590DDA005A08DC005D0802
:1014B6000319692A5C085D020318702A5D03FF3A66
:1014C6005C07D70019305702031C702A5408D10054
:1014D6005508D2005608D30008005C080319080016
:1014E6005D085C0203187F2A5C03FF3A5D07D7009C
:1014F60019305702031808000630D7005708DB00DA
:10150600D31BDB17D61B5B17D217FF30D105FF3075
:10151600D2050030D305D517FF30D405FF30D505E9
:101526000030D6055C085D020318BB2A0130D435AD
:10153600D50DD60D890B9A2A0130DC025C085D06B2
:101546000319B62A0130DB025B0807390319B62AEC
:10155600992A0130D336D20CD10C890BAD2A013031
:10156600D7005708DD075D085C060319E02AAC2A98
:101576005D085C020318E02A0130D135D20DD30D87
:10158600890BC02A0130DD025C085D060319DC2ADE
:101596000130DB025B0807390319DC2ABF2A013058
:1015A600D636D50CD40C890BD32A0130D700570870
:1015B600DC075D085C06031DD22ADB1FF22AFF301A
:1015C600D106FF30D206FF30D3060130D1070030F6
:1015D60003180130D207003003180130D3075B1F10
:1015E600042BFF30D406FF30D506FF30D606013077
:1015F600D407003003180130D50700300318013036
:10160600D607DB015108D4075208D53D5308D63D0D
:10161600D61F1F2BFF30D406FF30D506FF30D60667
:101626000130D407003003180130D5070030031805
:101636000130D607DB01DB0A5408A0005508A100DB
:101646005608A2005D08D7005708A3005B08D8001B
:101656005808A4009531382540012008D1002108FA
:10166600D2002208D3000800203086008701403FC0
:101676004001A600413FA700423FA800433FA90002
:101686000310280D290DAA002A08B3003308031DEC
:10169600552B0030A3000030A2000030A10000301E
:1016A600A0000800233086008701403FA600413F86
:1016B600A700423FA800433FA9000310280D290DAB
:1016C600AA002A08B2003208031D722B0030A300BC
:1016D6000030A2000030A1000030A0000800203039
:1016E6008600870100308104413100308104413198
:1016F600803081044131003081042030860087012A
:10170600FF3081054131FF3081054131FF308105D0
:101716004131003081052330860087010030810485
:101726004131003081044131803081044131003043
:101736008104233086008701FF3081054131FF3067
:1017460081054131FF30810541310030810500308E
:10175600B1000030B0000030AF000030AE007F3086
:10176600B302A0303207A6002608B3022030A60036
:101776002608B2000130AE35AF0DB00DB10D890BA4
:10178600BE2B233086008701403FA600413FA700BD
:10179600423FA800433FA900203086008701403F12
:1017A600AA00413FAB00423FAC00433FAD002908D1
:1017B6002D02031DE82B28082C02031DE82B270801
:1017C6002B02031DE82B26082A02031C052C2330B6
:1017D60086008701403FA600413FA700423FA80080
:1017E600433FA90020308600870126088102413147
:1017F6002708813B41312808813B41312908813B3B
:101806007D312E1420308600870181354131810DCE
:101816004131810D4131810D7D310130B202031D0F
:10182600BD2BB31F322C3308803A9F3E0318242C5D
:101836000030A3000030A2000030A1000030A0005C
:1018460008000130B136B00CAF0CAE0C890B252C5C
:101856000130A6002608B30703194B2C242C203090
:101866003302031C482C0030A3000030A2000030D5
:10187600A1000030A00008000130AE35AF0DB00D5C
:10188600B10D890B402C0130B3023308031D3F2CE8
:101896003108A3003008A2002F08A1002E08A000DE
:1018A60008004001D0006E305002031C152D0A308E
:1018B600A4000030A5005008C600C7014608A200D3
:1018C6004708A3006430A0000030A1009331AC2388
:1018D6008C3140012108A7002008A600943140243D
:1018E6008C3140012408093EAD000030253DAE0094
:1018F6000330AF000030B00091315F218C314001E0
:101906002E0885002D088400A83084079030853D78
:10191600003FB300013FB400023FB5006430A400AD
:101926000030A5005008C800C9014808A6004908AB
:10193600A700943140248C3140012408123EAD00AA
:101946000030253DAE000330AF000030B0009131CD
:101956005F218C3140012E0885002D088400A830B7
:1019660084079030853D003FB600013FB700023F37
:10197600B8008831D7208C3140013308CD003408B7
:10198600CE003508CF005008C600C7014608A200A1
:101996004708A3000A30A0000030A1009331AC2311
:1019A6008C3140012108AE002008AD000330AF00A5
:1019B6000030B00091315F218C3140012E08850046
:1019C6002D088400A83084079030853D003FB30081
:1019D600013FB400023FB5004D08B6004E08B700FF
:1019E6004F08B8008831D7208C3140013308CA002F
:1019F6003408CB003508CC000030B3000030B4000A
:101A06003F30B5004A08B6004B08B7004C08B8008E
:101A16008831D72040013308C3003408C400350894
:101A2600C50008000B305002031C8D2D5008C6005F
:101A3600C7014608A2004708A3000A30A0000030EC
:101A4600A1009331AC238C3140012108AE0020085F
:101A5600AD000330AF000030B00091315F218C3112
:101A660040012E0885002D088400A8308407903098
:101A7600853D003FB300013FB400023FB5000A3088
:101A8600A4000030A5005008C800C9014808A600F7
:101A96004908A700943140248C3140012408093EAE
:101AA600AD000030253DAE000330AF000030B00081
:101AB60091315F218C3140012E0885002D0884006C
:101AC600A83084079030853D003FB600013FB7003F
:101AD600023FB8008831D7208C3140013308CD0051
:101AE6003408CE003508CF000030B3000030B40013
:101AF6003F30B5004D08B6004E08B7004F08B80095
:101B06008831D72040013308C3003408C4003508A3
:101B1600C50008000030B3000030B4003F30B50007
:101B26005008C600C7014608AD004708AE0003309E
:101B3600AF000030B00091315F218C3140012E089A
:101B460085002D088400A83084079030853D003F2D
:101B5600B600013FB700023FB8008831D7204001E8
:101B66003308C3003408C4003508C5000800400126
:101B7600CB00CB1FE02ECB09CB0A4B08803A123E96
:101B8600031C642E0A30A4000030A5004B08A200F6
:101B9600A301A21BA3036430A0000030A10093316F
:101BA600AC238D3140012108A7002008A6009431FE
:101BB60040248D3140012408093EAD000030253D0A
:101BC600AE000330AF000030B00091315F218D319F
:101BD60040012E0885002D088400A8308407903027
:101BE600853D003FB300013FB400023FB5006430BD
:101BF600A4000030A5004B08A600A701A61BA7035A
:101C0600943140248D3140012408123EAD0000304D
:101C1600253DAE000330AF000030B00091315F21AA
:101C26008D3140012E0885002D088400A8308407D8
:101C36009030853D003FB600013FB700023FB80037
:101C46008831D7208D3140013308C8003408C900D7
:101C56003508CA004B08A200A301A21BA3030A3041
:101C6600A0000030A1009331AC238D314001210842
:101C7600AE002008AD000330AF000030B000913157
:101C86005F218D3140012E0885002D088400A83083
:101C960084079030853D003FB300013FB400023F0A
:101CA600B5004808B6004908B7004A08B8008831A8
:101CB600D72040013308C3003408C4003508C500E6
:101CC60008004B08803A753E031CC32E4B08A20041
:101CD600A301A21BA3030A30A0000030A100933188
:101CE600AC238D3140012108AE002008AD00033041
:101CF600AF000030B00091315F218D3140012E08D8
:101D060085002D088400A83084079030853D003F6B
:101D1600B300013FB400023FB5000A30A400003012
:101D2600A5004B08A600A701A61BA70394314024D3
:101D36008D3140012408093EAD000030253DAE003E
:101D46000330AF000030B00091315F218D3140018A
:101D56002E0885002D088400A83084079030853D24
:101D6600003FB600013FB700023FB8008831D720D8
:101D760040013308C3003408C4003508C500080014
:101D86004B08C600C7014608AD004708AE00033041
:101D9600AF000030B00091315F2140012E08850070
:101DA6002D088400A83084079030853D003FC3008D
:101DB600013FC400023FC50008004B08803A123EAE
:101DC600031C842F0A30A4000030A5004B08A20093
:101DD600A301A21BA3036430A0000030A10093312D
:101DE600AC238D3140012108A7002008A6009431BC
:101DF60040248D3140012408093EAD000030253DC8
:101E0600AE000330AF000030B00091315F218D315C
:101E160040012E0885002D088400CF3084079030BD
:101E2600853D003FB300013FB400023FB50064307A
:101E3600A4000030A5004B08A600A701A61BA70317
:101E4600943140248D3140012408123EAD0000300B
:101E5600253DAE000330AF000030B00091315F2168
:101E66008D3140012E0885002D088400CF3084076F
:101E76009030853D003FB600013FB700023FB800F5
:101E86008831D7208D3140013308C8003408C90095
:101E96003508CA004B08A200A301A21BA3030A30FF
:101EA600A0000030A1009331AC238D314001210800
:101EB600AE002008AD000330AF000030B000913115
:101EC6005F218D3140012E0885002D088400CF301A
:101ED60084079030853D003FB300013FB400023FC8
:101EE600B5004808B6004908B7004A08B800883166
:101EF600D72040013308C3003408C4003508C500A4
:101F060008004B08803A753E031CE32F4B08A200DD
:101F1600A301A21BA3030A30A0000030A100933145
:101F2600AC238D3140012108AE002008AD000330FE
:101F3600AF000030B00091315F218D3140012E0895
:101F460085002D088400CF3084079030853D003F02
:101F5600B300013FB400023FB5000A30A4000030D0
:101F6600A5004B08A600A701A61BA7039431402491
:101F76008D3140012408093EAD000030253DAE00FC
:101F86000330AF000030B00091315F218D31400148
:101F96002E0885002D088400CF3084079030853DBB
:101FA600003FB600013FB700023FB8008831D72096
:101FB60040013308C3003408C4003508C5000800D2
:101FC6004B08C600C7014608AD004708AE000330FF
:101FD600AF000030B00091315F2140012E0885002E
:101FE6002D088400CF3084079030853D003FC30024
:101FF600013FC400023FC50008000034003400342D
:10200600003400340034003400340034003400342A
:10201600003400340034003400340034003400341A
:10202600003400340034003400340034003400340A
:102036000034003400340034003400348634223452
:102046000034003400340034203439340F3463341F
:10205600003400344034803452343F3406345B3428
:102066004F3466346D347D3407347F346F3409342D
:102076000034583448344C348734003477347C3454
:1020860039345E34793471343D34743404340E3466
:1020960075343034373454345C34733467345034E4
:1020A6006D3478341C342A346A34363466345B34FE
:1020B600393464340F3423340834023477347C34AE
:1020C60039345E34793471343D34743404340E3426
:1020D60075343034373454345C34733467345034A4
:1020E6006D3478341C342A346A34363466345B34BE
:1020F600393406340F340134FF34013400340034EB
:1021060000340A34003400340034643400340034BB
:102116000034E834033400340034103427340034F7
:102126000034A034863401340034403442340F3451
:10213600003480349634983400340034E134F53475
:1021460005340034CA349A343B34003480343F3486
:10215600CD34CC343D34D73423343C341234833438
:102166003A34B734D1343834C63427343734383473
:1021760086343534C034D6343334CC342B3432340C
:10218600703489343034E734DB342E34E5343C346F
:102196001E344234A2340D34003480343F340034CB
:1021A600203441340034C834423400347A34443460
:1021B60040341C3446345034C334473424347434E5
:1021C6004934973418344B34BC34BE344C346B34F5
:1021D6006E344E340334153450347934AD346034AF
:1021E600F334493471347234653473346D34653480
:1021F6007434653472345F347334743461347434D3
:102206006534003425342B34303436342E343034AF
:102216003234663420342A34633400346934623408
:1022260074346E345F3473347434613474346534A6
:1022360000342534303436342E3430343334663476
:1022460020347534663400342534303436342E3434
:102256003034333466342034203476340034253434
:10226600303436342E343034313466346B3468349A
:102276007A340034703477346D345F3473347434A4
:102286006134743465340034743465346C346534C4
:1022960063342034753431340034253430343534E5
:1022A6006434203468347A3400346334203425347A
:1022B60030343634643400344001B101B2012D1C8F
:1022C60068292F08B1073008B23D0130AF35B00D8F
:1022D600890B69290130AE36AD0C890B6E292D08A4
:1022E6002E04031D62293208AE003108AD00080035
:1022F6004001A4017508A1007408A000F40A03199E
:10230600F50A20088400210885000008A20022089A
:10231600A3002308031998292E30230603197D29C3
:102326000130A0002008A4077D29240808004001E8
:102336008D1AB5290930A1001C30A000A00BA129D7
:10234600A10BA129000040018D1EA62941016A08A2
:10235600031DAF290130B02900304001A00020083C
:102366004101EA0041016A089131FF21080040015C
:10237600AA01A61FC529A509A609A50A0319A60A21
:10238600AA01AA0A2508A0002608A100A2018E30EB
:10239600A8002808A3002A08A9002908A400953146
:1023A600382540012008A5002108A6002208A7001C
:1023B60008004001960197019801FF3099009A01A3
:1023C600C7309100FE3092009301940101309500D0
:1023D60004307E01B800C301CE01D901E401033007
:1023E600B900E030C400CF01DA01E501E601BA0127
:1023F600C501D001DB010800F600440114101A10D3
:102406007608F5007508F80076080319102A0230D8
:102416009400DC3092000B30152A3230940069307B
:10242600920067309300990198014E0110119110A6
:1024360010121111440114141A1401309D31F225A1
:10244600080040011A111208E1390C389200A20165
:10245600A3011708FD3922049700A401A501170856
:10246600EF39240497002930A1009430A000A00B76
:102476003A2AA10B3A2A000040011208E1390E3827
:10248600920001309D31E92592319E31F2261030BD
:102496004001A6000030A7001708EF392604970070
:1024A600080040018D1A5A2A4101E601E701003071
:1024B60040010C1801304101DD005D03031D6B2A4C
:1024C6005D086C0603196B2A0130E6070030E73D0C
:1024D6005D084001EC006C084101EC005830A0009A
:1024E6009130A1006708A3006608A200CC308031B5
:1024F60050209231CC304001A5000030A600A70143
:102506009631B526080040019A1002309E315A26AF
:10251600923175084001EF007408EE009A146F08B6
:10252600A6006E08A5009F311B27923140012508A1
:10253600B6002608B7002708B8007730B3006F301A
:10254600B4004130B5008831D720923140013308BC
:10255600DE003408DF003508E00095319D25400196
:102566005F08ED005E08EC000800440114104E01FF
:1025760010119110101211117808031DD32A693019
:1025860044019200673093000130F2007208F707A9
:1025960014307702031CD12AF701D32A1414080039
:1025A60044011A1000309D31E0259231FF30F000D1
:1025B600FF30F1009D31B12592314101620863047B
:1025C6000319080063088A0062080A0092310800AD
:1025D6004001A21F022B2009F4002109F50022095F
:1025E600F600F40A0319F50A0319F60A003074070F
:1025F600A0000030753DA1008030763DA200A51FE9
:10260600182B2309F4002409F5002509F600F40A1D
:102616000319F50A0319F60A00307407A3000030FF
:10262600753DA4008030763DA5008030A20680303E
:10263600A50625082202031D080024082102031D01
:10264600080023082002080052018C160C163D30A3
:102656009E315A26933175084001EF007408EE004A
:102666006F08A6006E08A5009F311B279331400115
:102676002508B6002608B7002708B8009A30B30028
:102686004330B400C230B5008831D72093314001C1
:102696003308D4003408D5003508D6004030D100C0
:1026A6009C30D2004530D3008A314122933140011B
:1026B6005108DE005208DF005308E00095319D25E1
:1026C60040015F08ED005E08EC000800400130089C
:1026D6002F042E042D040319A32BF601F60AB01BB2
:1026E600802B0130AD35AE0DAF0DB00D890B752BBE
:1026F6000130F5007508F607722B30083402031D09
:102706008E2B2F083302031D8E2B2E083202031D3B
:102716008E2B2D083102031C982B2D08B1022E0892
:10272600B23B2F08B33B3008B43B0130B036AF0C98
:10273600AE0CAD0C890B992B0130F602031D802BD4
:102746003408B0003308AF003208AE003108AD00DF
:102756000800F6014001A31FB72BA209A309A20A8C
:102766000319A30AF601F60AA11FBE2BA009A109A7
:10277600A00A0319A10A200821040319E52BF50173
:10278600F50AA11BD02B0130A035A10D890BC72B53
:102796000130F4007408F507C42B21082302031D39
:1027A600D62B20082202031CDC2B2008A2022108BB
:1027B600A33B0130A136A00C890BDD2B0130F502BD
:1027C600031DD02B76080319ED2BA209A309A20A33
:1027D6000319A30A2308A1002208A00008009F31BC
:1027E600AC27933175084101DE007408DD006A08E4
:1027F60003192A2C3230A0009130A100003040018C
:10280600AB002030AC004130AD0041015E08400114
:10281600A60041015D084001A5009F311B279331A9
:1028260040012508AE002608AF002708B000973102
:102836005727933140012B084101A20040012C0883
:102846004101A30040012D084101A400332C503062
:102856004101A0009130A1005E08A3005D08A2001E
:10286600CC30803150209331CC304001A50000306F
:10287600A600A7019631B52608004001AA01A51FAA
:102886004B2CA409A509A40A0319A50AAA01AA0A98
:10289600A71F562CA609A709A60A0319A70A0130DD
:1028A600A8002808AA06AB01AC01240825040319D0
:1028B600852CA901A90AA51B6A2C0130A435A50DF2
:1028C600890B612C0130A8002808A9075E2C01306D
:1028D600AB35AC0D890B6B2C25082702031D752C17
:1028E60024082602031C7C2C2408A6022508A73BE4
:1028F6002B140130A536A40C890B7D2C0130A902BE
:10290600031D6A2C2A0803198D2CAB09AC09AB0AE6
:102916000319AC0A2C08A5002B08A40008000030F7
:102926004001AB000030AA000030A9000030A8002A
:1029360023082204210420040319DC2CAC01AC0A70
:10294600A31BB12C0130A035A10DA20DA30D890B3F
:10295600A62C0130F4007408AC07A32C0130A8356E
:10296600A90DAA0DAB0D890BB22C23082702031D56
:10297600C62C22082602031DC62C21082502031D8B
:10298600C62C20082402031CD12C2008A4022108EE
:10299600A53B2208A63B2308A73B28140130A336F3
:1029A600A20CA10CA00C890BD22C0130AC02031D89
:1029B600B12C2B08A3002A08A2002908A100280888
:1029C600A000080092318622943140016D08410131
:1029D600E10040016C084101E0002730A000913081
:1029E600A10000304001AB007A30AC004430AD00AD
:1029F600410161084001A600410160084001A500AF
:102A06009131BA21943140012508AE002608AF0065
:102A16002708B00097315727943140012B08410110
:102A2600A20040012C084101A30040012D084101EC
:102A3600A400CF30803150209431CF304001A50022
:102A46000030A600A7019631B52694310430410125
:102A5600CE002C30CD00AD30CC00CC0B302DCD0BC4
:102A6600302DCE0B302D003208004001230803190B
:102A7600412D220821042004031D522D0030A00000
:102A86000030A1000030A20008000130F4007408F4
:102A9600A3070130A236A10CA00C890B4D2DFE30E8
:102AA600220503196B2D482D0130F4007408A30785
:102AB6000130A007003003180130A10700300318C9
:102AC6000130A2070130A236A10CA00C890B662D9D
:102AD600FF3022050319782D572D0130A30201304E
:102AE600A035A10DA20D890B732DA11B7E2D0230E1
:102AF60023020318702D2318862DFF30A0057F3082
:102B0600A105FF30A2050310A30C2308F400F5016C
:102B1600F6011030F435F50DF60D890B8D2D740880
:102B2600A0047508A1047608A20424080319080065
:102B3600A217080040015E08E2005F08E300600893
:102B4600E4000310630D640DE5006508EB006B08F7
:102B5600031DB62D0030E1000030E0000030DF003C
:102B66000030DE0008005E08E2005F08E30060084F
:102B7600E4001730E436E30CE20C890BBD2D620845
:102B8600E5006508E600DF17FF30DE05FF30DF05EC
:102B96000030E0055E08E7005F08E8006008E9002D
:102BA600EA018E30EB02EB1FF42D6B08803A8F3E64
:102BB6000318E62D0030E1000030E0000030DF00B1
:102BC6000030DE0008000130EA36E90CE80CE70CBC
:102BD600890BE72D0130E2006208EB0703190D2E81
:102BE600E62D18306B02031C0A2E0030E10000307F
:102BF600E0000030DF000030DE0008000130E7357D
:102C0600E80DE90DEA0D890B022E0130EB026B0887
:102C1600031D012E660803191B2EE709E809E909B9
:102C2600EA09E70A0319E80A0319E90A0319EA0A8D
:102C36006A08E1006908E0006808DF006708DE004E
:102C460008009F319127963175084101DE0074080E
:102C5600DD0040018D1A402E0930ED001C30EC00DD
:102C6600EC0B332EED0B332E000040018D1E382E5B
:102C760041015E08E9005D08E80041015E0869025D
:102C8600031D472E5D08680203184E2E6808DD02F4
:102C96006908DE3B502EDD01DE015E084001A6001C
:102CA60041015D084001A5009F311B279631400177
:102CB6002508B6002608B7002708B800D730B300A5
:102CC6002330B4003E30B5008831D720963140011C
:102CD6003308DE003408DF003508E00095319D2515
:102CE600963140015F084101DE0040015E08410166
:102CF600DD001C30A0009130A10000304001AB0087
:102D06007A30AC004430AD0041015E084001A600B7
:102D160041015D084001A5009F311B279631400106
:102D26002508AE002608AF002708B00097315727C0
:102D3600963140012B084101A20040012C084101B7
:102D4600A30040012D084101A400CC308031502061
:102D56009631CC304001A5000030A600A70196317F
:102D6600B52608004001A71FC72E2608F50025082E
:102D7600F40091317B21963140012707013EFF3A4D
:102D8600013EA8002808A7002708803A7F3E0318BE
:102D9600CF2EAD01AE01D42E2708AD00AE01AD1B7E
:102DA600AE032E08803AA80080302802031DDD2ECF
:102DB60007302D02031CE52E07304001AB00003022
:102DC600AC00F72E40012708803A7F3E0318EE2E0E
:102DD600AF01B001F32E2708AF00B001AF1BB0035F
:102DE6003008AC002F08AB002B08A8002808A70065
:102DF6002708A8002808B300B101083033020318D9
:102E060008002608A9002508A8003108280784001C
:102E160029080318290A8500120003190800260844
:102E2600A9002508A80031082807840029080318E6
:102E3600290A85000008AA002A08B2002E303206A8
:102E4600031D382F3208003E840090300318013EDF
:102E560085000008A8000130B3023308203E860032
:102E660001308700280881044E2FB21B412F3208FB
:102E7600003E840090300318013E442F7F308400CA
:102E8600903085000008A8003308203E86000130F7
:102E96008700280881000130A8002808B307013000
:102EA600A8002808B107002F40012E08B1002F08FE
:102EB600B2003008B3000310320D330DB4003408ED
:102EC600B9003908031D6E2F0030AB000030AC008E
:102ED6000030AD0008002B08B1002C08B2002D0808
:102EE600B3000310320D330DB4003408BA003A08AB
:102EF600031D842F0030AB000030AC000030AD0065
:102F060008000030B6000030B7000030B800893045
:102F16003A07B1003108B9022E08B1002F08B200F5
:102F26003008B3001030B336B20CB10C890B962FB3
:102F36003108B4003408BA002B08B1002C08B200DE
:102F46002D08B3001030B336B20CB10C890BA62F86
:102F56003108B4003408BA068030B1003108BA0529
:102F6600AF17FF30AE05FF30AF050030B005AC1728
:102F7600FF30AB05FF30AC050030AD051830B100B1
:102F86003108B5000130B635B70DB80D890BC62F1F
:102F96002D083002031DD52F2C082F02031DD52F17
:102FA6002B082E02031CDE2F2B08AE022C08AF3B8B
:102FB6002D08B03B36140130AE35AF0DB00D890B80
:102FC600DF2F0130B502031DC52F3608A0003708D4
:102FD600A1003808A2003908B1003108A3003A0858
:102FE600B2003208A4009531382540012008AB0014
:102FF6002108AC002208AD00080088315F2888311E
:10300600632888317E28883182288831862888314D
:0A301600A1288831A5288831A928D7
:103B62007108440193007008920008007508410131
:103B7200EE007408ED00080075084201AD007408FB
:103B8200AC00080075084101E3007408E200080077
:103B9200640080010131890BCA2D00347608750456
:103BA2007404031908008030F6060800F0004E0184
:103BB2000E10700C031C1810031818140800F000E3
:103BC2004E011011700C031C1A1103181A1508006B
:103BD200F4004E010E10740C031C18100318181474
:103BE2000800F4004E011011740C031C1A11031882
:103BF2001A15080011304001A5009130A600A70156
:103C02009631B52608003D304001A5009130A6004E
:103C1200A7019631B5260800F6304001A500903084
:103C2200A600A7019631B5260800F4004E01101037
:103C3200740C031C1A1003181A1408009E31A926CA
:103C42009E319E314C269E319E319926080070305D
:103C520051018D008F019101023093009001920178
:103C620008009E3169269E319E3179269E319E3111
:103C720089269E31803103200800F500F4013A3094
:103C8200750203184A2E30307502031C4A2EF401C5
:103C9200F40A740C08003230440194009501960134
:103CA20001309700930192014E011011440114104A
:103CB20008004001A000200841019E009317131341
:103CC20013141318622E0D08F5000C08F4000800F6
:103CD2007C0191019201013093009401950102301F
:103CE20096000430970098019901803090000800F6
:103CF2007C019B019C0101309D009E019F010130CE
:103D0200A0000830A100A201A30180309A0008009F
:103D12007C01A501A6010130A700A801A90101307B
:103D2200AA000430AB00AC01AD018030A400080051
:103D3200063044019A0010309B0004309C009D0123
:103D4200990198014E011012111144011A10080034
:103D5200023044018E008F01900101309100E73062
:103D62008D0096308C004E0110101A1444010E146E
:103D720008004E011010E73044018D0096308C008F
:103D820042012C082D04031908002D088A002C0872
:103D92000A009E310800440114104E010E1000303A
:103DA2009D31D7259E3141016D086E04031908002B
:103DB2006E088A006D080A009E31080080305201A8
:103DC2008E0016308F004E01181080305301900083
:103DD2000130910003309200053093004E010E1025
:103DE2000800440114101A10023094000130F5004A
:103DF2007508F800930192014E01101191104401CF
:103E0200141401309D31F22508004001160EF00015
:103E1200700C0139F0000130F006F00EF00D1608BA
:103E22007006DF39700696000130F000700841011B
:103E3200EB00080040012508A0002608A100A2010D
:103E42008E30A8002808A300A4019531382540012E
:103E52002008A5002108A6002208A70008004001AA
:103E62001A15160EF000700C0139F0000130F00640
:103E7200F00EF00D16087006DF397006960001305C
:103E8200F00070084101EB0008009E3128269F31A6
:103E92009131DC219F319F315E279F319E31322645
:103EA2009F319E31DF269F319F31C7279F319E313F
:103EB2001F269F318731FC27080055307D018F0076
:103EC200AA308F000F10E0309605BB010130BC0014
:103ED20001307E0194000230930003309800553087
:103EE2007D018F00AA308F000F1408004001980155
:103EF2000130F000790A7E2FF035890B7D2F700892
:103F0200FF3A99007908203E8600013087000108B7
:103F120098007908013E0739F0007008F90008009E
:103F22004401141012084001A000A1012008A300BE
:103F32002108A400440113084001A000A1012008A7
:103F4200A100A0012008A3042108A4042408F5006C
:103F52002308F400080044011A1018084001A000C8
:103F6200A1012008A3002108A4004401190840016E
:103F7200A000A1012008A100A0012008A30421089B
:103F8200A4042408F5002308F40008004101940168
:103F9200950120309600990197010F3098009A01FF
:103FA2009B019C0102309D009E0142018D018E0108
:103FB2008F019001910192019301C430410193005C
:103FC2000800400160085F045E040319EA2F803094
:103FD200E0066108D1006208D2006308D3005E08DF
:103FE200D4005F08D5006008D6008A314122400122
:0E3FF2005108DE005208DF005308E00008000E
:020000040001F9
:0A000E00FA3FFF3D9F3FFF1FFF3F39
:00000001FF
